{
  "_format": "hh-sol-artifact-1",
  "contractName": "TableSequences",
  "sourceName": "contracts/TableSequences.sol",
  "abi": [
    {
      "anonymous": false,
      "inputs": [
        {
          "indexed": false,
          "internalType": "uint256",
          "name": "id",
          "type": "uint256"
        },
        {
          "indexed": false,
          "internalType": "string",
          "name": "tableName",
          "type": "string"
        },
        {
          "indexed": false,
          "internalType": "string",
          "name": "cid",
          "type": "string"
        }
      ],
      "name": "SequenceCreated",
      "type": "event"
    },
    {
      "anonymous": false,
      "inputs": [
        {
          "indexed": false,
          "internalType": "uint256",
          "name": "id",
          "type": "uint256"
        },
        {
          "indexed": false,
          "internalType": "string",
          "name": "newCid",
          "type": "string"
        }
      ],
      "name": "SequenceUpdated",
      "type": "event"
    },
    {
      "inputs": [
        {
          "internalType": "string",
          "name": "tableName",
          "type": "string"
        },
        {
          "internalType": "string",
          "name": "cid",
          "type": "string"
        }
      ],
      "name": "createSequence",
      "outputs": [
        {
          "internalType": "uint256",
          "name": "",
          "type": "uint256"
        }
      ],
      "stateMutability": "nonpayable",
      "type": "function"
    },
    {
      "inputs": [
        {
          "internalType": "uint256",
          "name": "id",
          "type": "uint256"
        }
      ],
      "name": "getSequenceById",
      "outputs": [
        {
          "internalType": "uint256",
          "name": "",
          "type": "uint256"
        },
        {
          "internalType": "string",
          "name": "",
          "type": "string"
        },
        {
          "internalType": "string",
          "name": "",
          "type": "string"
        }
      ],
      "stateMutability": "view",
      "type": "function"
    },
    {
      "inputs": [
        {
          "internalType": "uint256",
          "name": "id",
          "type": "uint256"
        },
        {
          "internalType": "string",
          "name": "newCid",
          "type": "string"
        }
      ],
      "name": "updateSequenceCid",
      "outputs": [],
      "stateMutability": "nonpayable",
      "type": "function"
    }
  ],
  "bytecode": "0x60806040526001805534801561001457600080fd5b50610997806100246000396000f3fe608060405234801561001057600080fd5b50600436106100415760003560e01c806365d886ef14610046578063aed6a3ea14610076578063e2ed2677146100a8575b600080fd5b610060600480360381019061005b9190610547565b6100c4565b60405161006d91906106d8565b60405180910390f35b610090600480360381019061008b91906105b3565b61019d565b60405161009f93929190610723565b60405180910390f35b6100c260048036038101906100bd91906105dc565b610367565b005b600080600154905060405180606001604052808281526020018581526020018481525060008083815260200190815260200160002060008201518160000155602082015181600101908051906020019061011f929190610427565b50604082015181600201908051906020019061013c929190610427565b509050506001600081548092919061015390610863565b91905055507f67e7225c015f726e25025945c2338d5a64564a2bc32932daa9fe09d86c11c1a581858560405161018b93929190610723565b60405180910390a18091505092915050565b600060608060008060008681526020019081526020016000206000015414156101fb576040517f08c379a00000000000000000000000000000000000000000000000000000000081526004016101f2906106b8565b60405180910390fd5b60008060008681526020019081526020016000206040518060600160405290816000820154815260200160018201805461023490610831565b80601f016020809104026020016040519081016040528092919081815260200182805461026090610831565b80156102ad5780601f10610282576101008083540402835291602001916102ad565b820191906000526020600020905b81548152906001019060200180831161029057829003601f168201915b505050505081526020016002820180546102c690610831565b80601f01602080910402602001604051908101604052809291908181526020018280546102f290610831565b801561033f5780601f106103145761010080835404028352916020019161033f565b820191906000526020600020905b81548152906001019060200180831161032257829003601f168201915b5050505050815250509050806000015181602001518260400151935093509350509193909250565b60008060008481526020019081526020016000206000015414156103c0576040517f08c379a00000000000000000000000000000000000000000000000000000000081526004016103b7906106b8565b60405180910390fd5b8060008084815260200190815260200160002060020190805190602001906103e9929190610427565b507f34af4bcec74cbf8f28d4dab62510381c60b737e4d956738774a338c6ca60e466828260405161041b9291906106f3565b60405180910390a15050565b82805461043390610831565b90600052602060002090601f016020900481019282610455576000855561049c565b82601f1061046e57805160ff191683800117855561049c565b8280016001018555821561049c579182015b8281111561049b578251825591602001919060010190610480565b5b5090506104a991906104ad565b5090565b5b808211156104c65760008160009055506001016104ae565b5090565b60006104dd6104d884610799565b610768565b9050828152602081018484840111156104f557600080fd5b6105008482856107ef565b509392505050565b600082601f83011261051957600080fd5b81356105298482602086016104ca565b91505092915050565b6000813590506105418161094a565b92915050565b6000806040838503121561055a57600080fd5b600083013567ffffffffffffffff81111561057457600080fd5b61058085828601610508565b925050602083013567ffffffffffffffff81111561059d57600080fd5b6105a985828601610508565b9150509250929050565b6000602082840312156105c557600080fd5b60006105d384828501610532565b91505092915050565b600080604083850312156105ef57600080fd5b60006105fd85828601610532565b925050602083013567ffffffffffffffff81111561061a57600080fd5b61062685828601610508565b9150509250929050565b600061063b826107c9565b61064581856107d4565b93506106558185602086016107fe565b61065e81610939565b840191505092915050565b60006106766018836107d4565b91507f53657175656e636520646f6573206e6f742065786973742e00000000000000006000830152602082019050919050565b6106b2816107e5565b82525050565b600060208201905081810360008301526106d181610669565b9050919050565b60006020820190506106ed60008301846106a9565b92915050565b600060408201905061070860008301856106a9565b818103602083015261071a8184610630565b90509392505050565b600060608201905061073860008301866106a9565b818103602083015261074a8185610630565b9050818103604083015261075e8184610630565b9050949350505050565b6000604051905081810181811067ffffffffffffffff8211171561078f5761078e61090a565b5b8060405250919050565b600067ffffffffffffffff8211156107b4576107b361090a565b5b601f19601f8301169050602081019050919050565b600081519050919050565b600082825260208201905092915050565b6000819050919050565b82818337600083830152505050565b60005b8381101561081c578082015181840152602081019050610801565b8381111561082b576000848401525b50505050565b6000600282049050600182168061084957607f821691505b6020821081141561085d5761085c6108db565b5b50919050565b600061086e826107e5565b91507fffffffffffffffffffffffffffffffffffffffffffffffffffffffffffffffff8214156108a1576108a06108ac565b5b600182019050919050565b7f4e487b7100000000000000000000000000000000000000000000000000000000600052601160045260246000fd5b7f4e487b7100000000000000000000000000000000000000000000000000000000600052602260045260246000fd5b7f4e487b7100000000000000000000000000000000000000000000000000000000600052604160045260246000fd5b6000601f19601f8301169050919050565b610953816107e5565b811461095e57600080fd5b5056fea2646970667358221220e801605aa37ce87cbf1b990ead08d02ec0cfa84d35f6b89b71484f3b976cb10d64736f6c63430008000033",
  "linkReferences": {},
  "deployedLinkReferences": {}
}